{
  "contractName": "CeloCrowdfund",
  "abi": [
    {
      "anonymous": false,
      "inputs": [
        {
          "indexed": false,
          "internalType": "address",
          "name": "contractAddress",
          "type": "address"
        },
        {
          "indexed": false,
          "internalType": "address",
          "name": "projectCreator",
          "type": "address"
        },
        {
          "indexed": false,
          "internalType": "string",
          "name": "creatorName",
          "type": "string"
        },
        {
          "indexed": false,
          "internalType": "string",
          "name": "title",
          "type": "string"
        },
        {
          "indexed": false,
          "internalType": "string",
          "name": "description",
          "type": "string"
        },
        {
          "indexed": false,
          "internalType": "string",
          "name": "imageLink",
          "type": "string"
        },
        {
          "indexed": false,
          "internalType": "uint256",
          "name": "fundRaisingDeadline",
          "type": "uint256"
        },
        {
          "indexed": false,
          "internalType": "uint256",
          "name": "goalAmount",
          "type": "uint256"
        }
      ],
      "name": "ProjectStarted",
      "type": "event"
    },
    {
      "inputs": [
        {
          "internalType": "contract IERC20",
          "name": "cUSDToken",
          "type": "address"
        },
        {
          "internalType": "string",
          "name": "creatorName",
          "type": "string"
        },
        {
          "internalType": "string",
          "name": "title",
          "type": "string"
        },
        {
          "internalType": "string",
          "name": "description",
          "type": "string"
        },
        {
          "internalType": "string",
          "name": "imageLink",
          "type": "string"
        },
        {
          "internalType": "uint256",
          "name": "durationInDays",
          "type": "uint256"
        },
        {
          "internalType": "uint256",
          "name": "amountToRaise",
          "type": "uint256"
        }
      ],
      "name": "startProject",
      "outputs": [],
      "stateMutability": "nonpayable",
      "type": "function"
    },
    {
      "inputs": [],
      "name": "returnProjects",
      "outputs": [
        {
          "internalType": "contract Project[]",
          "name": "",
          "type": "address[]"
        }
      ],
      "stateMutability": "view",
      "type": "function",
      "constant": true
    }
  ],
  "bytecode": "0x608060405234801561001057600080fd5b5061227d806100206000396000f3fe60806040523480156200001157600080fd5b50600436106200003a5760003560e01c806308ef2abd146200003f57806329957db0146200005f575b600080fd5b6200005d60048036038101906200005791906200030e565b62000081565b005b62000069620001c5565b604051620000789190620005ef565b60405180910390f35b6000620000af6200009f62015180856200025590919063ffffffff16565b426200026d90919063ffffffff16565b905060008c338d8d8d8d8d8d8d8d8b8d604051620000cd9062000285565b620000e49c9b9a9998979695949392919062000613565b604051809103906000f08015801562000101573d6000803e3d6000fd5b5090506000819080600181540180825580915050600190039060005260206000200160009091909190916101000a81548173ffffffffffffffffffffffffffffffffffffffff021916908373ffffffffffffffffffffffffffffffffffffffff1602179055507fb1e80b12f09b7b5d8ace964c9980c0311f31244468f34f9c8dccbf865fe427b781338e8e8e8e8e8e8e8e8c8e604051620001ae9c9b9a999897969594939291906200053d565b60405180910390a150505050505050505050505050565b606060008054806020026020016040519081016040528092919081815260200182805480156200024b57602002820191906000526020600020905b8160009054906101000a900473ffffffffffffffffffffffffffffffffffffffff1673ffffffffffffffffffffffffffffffffffffffff168152602001906001019080831162000200575b5050505050905090565b600081836200026591906200076c565b905092915050565b600081836200027d91906200070f565b905092915050565b611941806200090783390190565b600081359050620002a481620008d2565b92915050565b60008083601f840112620002bd57600080fd5b8235905067ffffffffffffffff811115620002d757600080fd5b602083019150836001820283011115620002f057600080fd5b9250929050565b6000813590506200030881620008ec565b92915050565b600080600080600080600080600080600060e08c8e0312156200033057600080fd5b6000620003408e828f0162000293565b9b505060208c013567ffffffffffffffff8111156200035e57600080fd5b6200036c8e828f01620002aa565b9a509a505060408c013567ffffffffffffffff8111156200038c57600080fd5b6200039a8e828f01620002aa565b985098505060608c013567ffffffffffffffff811115620003ba57600080fd5b620003c88e828f01620002aa565b965096505060808c013567ffffffffffffffff811115620003e857600080fd5b620003f68e828f01620002aa565b945094505060a06200040b8e828f01620002f7565b92505060c06200041e8e828f01620002f7565b9150509295989b509295989b9093969950565b60006200043f8383620004e8565b60208301905092915050565b6200045681620007e1565b82525050565b6200046781620007cd565b82525050565b60006200047a82620006d5565b620004868185620006ed565b93506200049383620006c5565b8060005b83811015620004ca578151620004ae888262000431565b9750620004bb83620006e0565b92505060018101905062000497565b5085935050505092915050565b620004e28162000833565b82525050565b620004f3816200085b565b82525050565b6000620005078385620006fe565b93506200051683858462000883565b6200052183620008c1565b840190509392505050565b620005378162000829565b82525050565b60006101008201905062000555600083018f6200045c565b62000564602083018e6200045c565b818103604083015262000579818c8e620004f9565b9050818103606083015262000590818a8c620004f9565b90508181036080830152620005a781888a620004f9565b905081810360a0830152620005be818688620004f9565b9050620005cf60c08301856200052c565b620005de60e08301846200052c565b9d9c50505050505050505050505050565b600060208201905081810360008301526200060b81846200046d565b905092915050565b6000610100820190506200062b600083018f620004d7565b6200063a602083018e6200044b565b81810360408301526200064f818c8e620004f9565b9050818103606083015262000666818a8c620004f9565b905081810360808301526200067d81888a620004f9565b905081810360a083015262000694818688620004f9565b9050620006a560c08301856200052c565b620006b460e08301846200052c565b9d9c50505050505050505050505050565b6000819050602082019050919050565b600081519050919050565b6000602082019050919050565b600082825260208201905092915050565b600082825260208201905092915050565b60006200071c8262000829565b9150620007298362000829565b9250827fffffffffffffffffffffffffffffffffffffffffffffffffffffffffffffffff0382111562000761576200076062000892565b5b828201905092915050565b6000620007798262000829565b9150620007868362000829565b9250817fffffffffffffffffffffffffffffffffffffffffffffffffffffffffffffffff0483118215151615620007c257620007c162000892565b5b828202905092915050565b6000620007da8262000809565b9050919050565b6000620007ee8262000809565b9050919050565b60006200080282620007cd565b9050919050565b600073ffffffffffffffffffffffffffffffffffffffff82169050919050565b6000819050919050565b6000620008408262000847565b9050919050565b6000620008548262000809565b9050919050565b600062000868826200086f565b9050919050565b60006200087c8262000809565b9050919050565b82818337600083830152505050565b7f4e487b7100000000000000000000000000000000000000000000000000000000600052601160045260246000fd5b6000601f19601f8301169050919050565b620008dd81620007f5565b8114620008e957600080fd5b50565b620008f78162000829565b81146200090357600080fd5b5056fe60806040526000600960006101000a81548160ff0219169083600281111562000051577f4e487b7100000000000000000000000000000000000000000000000000000000600052602160045260246000fd5b02179055503480156200006357600080fd5b5060405162001941380380620019418339818101604052810190620000899190620002f9565b876000806101000a81548173ffffffffffffffffffffffffffffffffffffffff021916908373ffffffffffffffffffffffffffffffffffffffff1602179055508560059080519060200190620000e192919062000192565b5086600160006101000a81548173ffffffffffffffffffffffffffffffffffffffff021916908373ffffffffffffffffffffffffffffffffffffffff16021790555084600690805190602001906200013b92919062000192565b5083600790805190602001906200015492919062000192565b5082600890805190602001906200016d92919062000192565b5080600281905550816004819055506000600381905550505050505050505062000605565b828054620001a09062000523565b90600052602060002090601f016020900481019282620001c4576000855562000210565b82601f10620001df57805160ff191683800117855562000210565b8280016001018555821562000210579182015b828111156200020f578251825591602001919060010190620001f2565b5b5090506200021f919062000223565b5090565b5b808211156200023e57600081600090555060010162000224565b5090565b600062000259620002538462000454565b62000420565b9050828152602081018484840111156200027257600080fd5b6200027f848285620004ed565b509392505050565b6000815190506200029881620005b7565b92915050565b600081519050620002af81620005d1565b92915050565b600082601f830112620002c757600080fd5b8151620002d984826020860162000242565b91505092915050565b600081519050620002f381620005eb565b92915050565b600080600080600080600080610100898b0312156200031757600080fd5b6000620003278b828c016200029e565b98505060206200033a8b828c0162000287565b975050604089015167ffffffffffffffff8111156200035857600080fd5b620003668b828c01620002b5565b965050606089015167ffffffffffffffff8111156200038457600080fd5b620003928b828c01620002b5565b955050608089015167ffffffffffffffff811115620003b057600080fd5b620003be8b828c01620002b5565b94505060a089015167ffffffffffffffff811115620003dc57600080fd5b620003ea8b828c01620002b5565b93505060c0620003fd8b828c01620002e2565b92505060e0620004108b828c01620002e2565b9150509295985092959890939650565b6000604051905081810181811067ffffffffffffffff821117156200044a576200044962000588565b5b8060405250919050565b600067ffffffffffffffff82111562000472576200047162000588565b5b601f19601f8301169050602081019050919050565b60006200049482620004c3565b9050919050565b6000620004a882620004c3565b9050919050565b6000620004bc8262000487565b9050919050565b600073ffffffffffffffffffffffffffffffffffffffff82169050919050565b6000819050919050565b60005b838110156200050d578082015181840152602081019050620004f0565b838111156200051d576000848401525b50505050565b600060028204905060018216806200053c57607f821691505b6020821081141562000553576200055262000559565b5b50919050565b7f4e487b7100000000000000000000000000000000000000000000000000000000600052602260045260246000fd5b7f4e487b7100000000000000000000000000000000000000000000000000000000600052604160045260246000fd5b620005c2816200049b565b8114620005ce57600080fd5b50565b620005dc81620004af565b8114620005e857600080fd5b50565b620005f681620004e3565b81146200060257600080fd5b50565b61132c80620006156000396000f3fe6080604052600436106100dd5760003560e01c80637284e4161161007f578063c205240311610059578063c20524031461027f578063caf7b759146102aa578063ce845d1d146102d5578063fbbf93a014610300576100dd565b80637284e4161461020d578063c19d93fb14610238578063c1cbbca714610263576100dd565b80632636b945116100bb5780632636b9451461014f57806342e94c901461017a5780634a79d50c146101b7578063510b1183146101e2576100dd565b806302d05d3f146100e257806315879c291461010d5780631f6f90bd14610124575b600080fd5b3480156100ee57600080fd5b506100f7610333565b6040516101049190610ea5565b60405180910390f35b34801561011957600080fd5b50610122610359565b005b34801561013057600080fd5b506101396103b7565b6040516101469190611036565b60405180910390f35b34801561015b57600080fd5b50610164610445565b6040516101719190611058565b60405180910390f35b34801561018657600080fd5b506101a1600480360381019061019c9190610d7c565b61044b565b6040516101ae9190611058565b60405180910390f35b3480156101c357600080fd5b506101cc610463565b6040516101d99190611036565b60405180910390f35b3480156101ee57600080fd5b506101f76104f1565b6040516102049190611058565b60405180910390f35b34801561021957600080fd5b506102226104f7565b60405161022f9190611036565b60405180910390f35b34801561024457600080fd5b5061024d610585565b60405161025a919061101b565b60405180910390f35b61027d60048036038101906102789190610dce565b610598565b005b34801561028b57600080fd5b506102946107ce565b6040516102a19190611000565b60405180910390f35b3480156102b657600080fd5b506102bf610a00565b6040516102cc9190611036565b60405180910390f35b3480156102e157600080fd5b506102ea610a8e565b6040516102f79190611058565b60405180910390f35b34801561030c57600080fd5b50610315610a94565b60405161032a99989796959493929190610ec0565b60405180910390f35b600160009054906101000a900473ffffffffffffffffffffffffffffffffffffffff1681565b6004544211156103b5576001600960006101000a81548160ff021916908360028111156103af577f4e487b7100000000000000000000000000000000000000000000000000000000600052602160045260246000fd5b02179055505b565b600580546103c4906111cd565b80601f01602080910402602001604051908101604052809291908181526020018280546103f0906111cd565b801561043d5780601f106104125761010080835404028352916020019161043d565b820191906000526020600020905b81548152906001019060200180831161042057829003601f168201915b505050505081565b60025481565b600a6020528060005260406000206000915090505481565b60068054610470906111cd565b80601f016020809104026020016040519081016040528092919081815260200182805461049c906111cd565b80156104e95780601f106104be576101008083540402835291602001916104e9565b820191906000526020600020905b8154815290600101906020018083116104cc57829003601f168201915b505050505081565b60045481565b60078054610504906111cd565b80601f0160208091040260200160405190810160405280929190818152602001828054610530906111cd565b801561057d5780601f106105525761010080835404028352916020019161057d565b820191906000526020600020905b81548152906001019060200180831161056057829003601f168201915b505050505081565b600960009054906101000a900460ff1681565b60008060028111156105d3577f4e487b7100000000000000000000000000000000000000000000000000000000600052602160045260246000fd5b600960009054906101000a900460ff16600281111561061b577f4e487b7100000000000000000000000000000000000000000000000000000000600052602160045260246000fd5b1461062557600080fd5b60008054906101000a900473ffffffffffffffffffffffffffffffffffffffff1673ffffffffffffffffffffffffffffffffffffffff166323b872dd3330856040518463ffffffff1660e01b815260040161068293929190610f69565b602060405180830381600087803b15801561069c57600080fd5b505af11580156106b0573d6000803e3d6000fd5b505050506040513d601f19601f820116820180604052508101906106d49190610da5565b5061072782600a60003373ffffffffffffffffffffffffffffffffffffffff1673ffffffffffffffffffffffffffffffffffffffff16815260200190815260200160002054610d2790919063ffffffff16565b600a60003373ffffffffffffffffffffffffffffffffffffffff1673ffffffffffffffffffffffffffffffffffffffff1681526020019081526020016000208190555061077f82600354610d2790919063ffffffff16565b6003819055507fb1bd58229606cd4dec94cb51b41275ea217cfa548aac87d25510ea49595312e533836003546040516107ba93929190610fc9565b60405180910390a16107ca610359565b5050565b6000600160009054906101000a900473ffffffffffffffffffffffffffffffffffffffff1673ffffffffffffffffffffffffffffffffffffffff163373ffffffffffffffffffffffffffffffffffffffff161461082a57600080fd5b60006003549050600060038190555060008054906101000a900473ffffffffffffffffffffffffffffffffffffffff1673ffffffffffffffffffffffffffffffffffffffff1663a9059cbb33836040518363ffffffff1660e01b8152600401610894929190610fa0565b602060405180830381600087803b1580156108ae57600080fd5b505af11580156108c2573d6000803e3d6000fd5b505050506040513d601f19601f820116820180604052508101906108e69190610da5565b1561099f577f2f256415efc8561af8db667cb242964b19be7380f379ccdafaa0e54a6f6b7069600160009054906101000a900473ffffffffffffffffffffffffffffffffffffffff1660405161093c9190610e8a565b60405180910390a16002600960006101000a81548160ff02191690836002811115610990577f4e487b7100000000000000000000000000000000000000000000000000000000600052602160045260246000fd5b021790555060019150506109fd565b806003819055506002600960006101000a81548160ff021916908360028111156109f2577f4e487b7100000000000000000000000000000000000000000000000000000000600052602160045260246000fd5b021790555060009150505b90565b60088054610a0d906111cd565b80601f0160208091040260200160405190810160405280929190818152602001828054610a39906111cd565b8015610a865780601f10610a5b57610100808354040283529160200191610a86565b820191906000526020600020905b815481529060010190602001808311610a6957829003601f168201915b505050505081565b60035481565b6000606080606080600080600080600160009054906101000a900473ffffffffffffffffffffffffffffffffffffffff16985060058054610ad4906111cd565b80601f0160208091040260200160405190810160405280929190818152602001828054610b00906111cd565b8015610b4d5780601f10610b2257610100808354040283529160200191610b4d565b820191906000526020600020905b815481529060010190602001808311610b3057829003601f168201915b5050505050975060068054610b61906111cd565b80601f0160208091040260200160405190810160405280929190818152602001828054610b8d906111cd565b8015610bda5780601f10610baf57610100808354040283529160200191610bda565b820191906000526020600020905b815481529060010190602001808311610bbd57829003601f168201915b5050505050965060078054610bee906111cd565b80601f0160208091040260200160405190810160405280929190818152602001828054610c1a906111cd565b8015610c675780601f10610c3c57610100808354040283529160200191610c67565b820191906000526020600020905b815481529060010190602001808311610c4a57829003601f168201915b5050505050955060088054610c7b906111cd565b80601f0160208091040260200160405190810160405280929190818152602001828054610ca7906111cd565b8015610cf45780601f10610cc957610100808354040283529160200191610cf4565b820191906000526020600020905b815481529060010190602001808311610cd757829003601f168201915b505050505094506004549350600960009054906101000a900460ff16925060025491506003549050909192939495969798565b60008183610d35919061108f565b905092915050565b600081359050610d4c816112b1565b92915050565b600081519050610d61816112c8565b92915050565b600081359050610d76816112df565b92915050565b600060208284031215610d8e57600080fd5b6000610d9c84828501610d3d565b91505092915050565b600060208284031215610db757600080fd5b6000610dc584828501610d52565b91505092915050565b600060208284031215610de057600080fd5b6000610dee84828501610d67565b91505092915050565b610e0081611152565b82525050565b610e0f816110f7565b82525050565b610e1e816110e5565b82525050565b610e2d81611109565b82525050565b610e3c81611164565b82525050565b6000610e4d82611073565b610e57818561107e565b9350610e6781856020860161119a565b610e708161128c565b840191505092915050565b610e8481611148565b82525050565b6000602082019050610e9f6000830184610df7565b92915050565b6000602082019050610eba6000830184610e06565b92915050565b600061012082019050610ed6600083018c610e06565b8181036020830152610ee8818b610e42565b90508181036040830152610efc818a610e42565b90508181036060830152610f108189610e42565b90508181036080830152610f248188610e42565b9050610f3360a0830187610e7b565b610f4060c0830186610e33565b610f4d60e0830185610e7b565b610f5b610100830184610e7b565b9a9950505050505050505050565b6000606082019050610f7e6000830186610e15565b610f8b6020830185610e15565b610f986040830184610e7b565b949350505050565b6000604082019050610fb56000830185610e15565b610fc26020830184610e7b565b9392505050565b6000606082019050610fde6000830186610e15565b610feb6020830185610e7b565b610ff86040830184610e7b565b949350505050565b60006020820190506110156000830184610e24565b92915050565b60006020820190506110306000830184610e33565b92915050565b600060208201905081810360008301526110508184610e42565b905092915050565b600060208201905061106d6000830184610e7b565b92915050565b600081519050919050565b600082825260208201905092915050565b600061109a82611148565b91506110a583611148565b9250827fffffffffffffffffffffffffffffffffffffffffffffffffffffffffffffffff038211156110da576110d96111ff565b5b828201905092915050565b60006110f082611128565b9050919050565b600061110282611128565b9050919050565b60008115159050919050565b60008190506111238261129d565b919050565b600073ffffffffffffffffffffffffffffffffffffffff82169050919050565b6000819050919050565b600061115d82611176565b9050919050565b600061116f82611115565b9050919050565b600061118182611188565b9050919050565b600061119382611128565b9050919050565b60005b838110156111b857808201518184015260208101905061119d565b838111156111c7576000848401525b50505050565b600060028204905060018216806111e557607f821691505b602082108114156111f9576111f861125d565b5b50919050565b7f4e487b7100000000000000000000000000000000000000000000000000000000600052601160045260246000fd5b7f4e487b7100000000000000000000000000000000000000000000000000000000600052602160045260246000fd5b7f4e487b7100000000000000000000000000000000000000000000000000000000600052602260045260246000fd5b6000601f19601f8301169050919050565b600381106112ae576112ad61122e565b5b50565b6112ba816110e5565b81146112c557600080fd5b50565b6112d181611109565b81146112dc57600080fd5b50565b6112e881611148565b81146112f357600080fd5b5056fea26469706673582212206f075d2864a915be5af87ba9d107d3b6c7aa2853781453b06632144e4ddf2c6064736f6c63430008000033a2646970667358221220d6868c024a92675a4f8e29a249a3143caa2a12ff3529847f062eec68c72da18d64736f6c63430008000033",
  "immutableReferences": {},
  "source": "// SPDX-License-Identifier: MIT\npragma solidity >=0.4.22 <0.9.0;\n\n// Importing OpenZeppelin's SafeMath Implementation\nimport \"@openzeppelin/contracts/utils/math/SafeMath.sol\";\nimport \"@openzeppelin/contracts/token/ERC20/IERC20.sol\";\n\ncontract CeloCrowdfund {\n  using SafeMath for uint256; \n\n  // List all the projects \n  Project[] private projects; \n\n  // event for when new project starts\n  event ProjectStarted(\n    address contractAddress,\n    address projectCreator,\n    string creatorName,\n    string title,\n    string description, \n    string imageLink,  \n    uint256 fundRaisingDeadline,\n    uint256 goalAmount\n  ); \n\n  function startProject(\n    IERC20 cUSDToken,\n    string calldata creatorName,\n    string calldata title,\n    string calldata description,\n    string calldata imageLink, \n    uint durationInDays, \n    uint amountToRaise\n  ) external {\n    uint raiseUntil = block.timestamp.add(durationInDays.mul(1 days)); \n    Project newProject = new Project (cUSDToken, payable(msg.sender), creatorName, title, description, imageLink, raiseUntil, amountToRaise); \n    projects.push(newProject); \n    emit ProjectStarted(\n      address(newProject),\n      msg.sender, \n      creatorName,\n      title,\n      description, \n      imageLink, \n      raiseUntil, \n      amountToRaise\n    );\n  }\n\n  function returnProjects() external view returns(Project[] memory) {\n    return projects; \n  }\n}\n\ncontract Project {\n  using SafeMath for uint256;\n\n  enum ProjectState {\n    Fundraising, \n    Expired, \n    Successful\n  }\n  IERC20 private cUSDToken;\n\n  address payable public creator; \n  uint public goalAmount; \n  uint256 public currentBalance; \n  uint public raisingDeadline; \n  string public creatorName;\n  string public title;\n  string public description; \n  string public imageLink;\n\n  ProjectState public state = ProjectState.Fundraising; // start with fundraising \n  mapping (address => uint) public contributions;\n  \n  // Event when funding is received\n  event ReceivedFunding(address contributor, uint amount, uint currentTotal);\n\n  // Event for when the project creator has received their funds\n  event CreatorPaid(address recipient); \n\n  modifier theState(ProjectState _state) {\n    require(state == _state);\n    _; \n  }\n\n  constructor\n  (\n    IERC20 token,\n    address payable projectCreator, \n    string memory projectCreatorName,\n    string memory projectTitle,\n    string memory projectDescription,\n    string memory projectImageLink, \n    uint fundRaisingDeadline,\n    uint projectGoalAmount\n  ) {\n    cUSDToken = token; \n    creatorName = projectCreatorName;\n    creator = projectCreator; \n    title = projectTitle; \n    description = projectDescription;\n    imageLink = projectImageLink;\n    goalAmount = projectGoalAmount;\n    raisingDeadline = fundRaisingDeadline;\n    currentBalance = 0; \n  }\n\n  // Fund a certain project\n  function contribute(uint256 amount) external theState(ProjectState.Fundraising) payable {\n    cUSDToken.transferFrom(msg.sender, address(this), amount);\n\n    contributions[msg.sender] = contributions[msg.sender].add(amount);\n    currentBalance = currentBalance.add(amount);\n    emit ReceivedFunding(msg.sender, amount, currentBalance);\n    checkIfFundingExpired();\n  }\n\n  // check project state\n  function checkIfFundingExpired() public {\n    if (block.timestamp > raisingDeadline) {\n      state = ProjectState.Expired;\n    }\n  }\n\n  function payOut() external returns (bool result) {\n    require(msg.sender == creator); \n\n    uint256 totalRaised = currentBalance; \n    currentBalance = 0; \n\n    if (cUSDToken.transfer(msg.sender, totalRaised)) {\n      emit CreatorPaid(creator);\n      state = ProjectState.Successful;\n      return true; \n    } else { \n      currentBalance = totalRaised; \n      state = ProjectState.Successful;\n    }\n\n    return false; \n  }\n\n  function getDetails() public view returns \n  (\n    address payable projectCreator, \n    string memory projectCreatorName,\n    string memory projectTitle,\n    string memory projectDescription,\n    string memory projectImageLink, \n    uint fundRaisingDeadline,\n    ProjectState currentState, \n    uint256 projectGoalAmount,\n    uint256 currentAmount\n  ) {\n    projectCreator = creator;\n    projectCreatorName = creatorName;  \n    projectTitle = title;\n    projectDescription = description;\n    projectImageLink = imageLink; \n    fundRaisingDeadline = raisingDeadline;\n    currentState = state; \n    projectGoalAmount = goalAmount; \n    currentAmount = currentBalance; \n  }\n}\n",
  "sourcePath": "/Users/alex/Local/coperacha-contracts/contracts/CeloCrowdfund.sol",
  "compiler": {
    "name": "solc",
    "version": "0.8.0+commit.c7dfd78e.Emscripten.clang"
  },
  "schemaVersion": "3.3.4",
  "updatedAt": "2021-04-10T17:52:55.396Z",
  "networkType": "ethereum",
  "devdoc": {
    "kind": "dev",
    "methods": {},
    "version": 1
  },
  "userdoc": {
    "kind": "user",
    "methods": {},
    "version": 1
  }
}