{
  "contractName": "Project",
  "abi": [
    {
      "inputs": [
        {
          "internalType": "address payable",
          "name": "projectCreator",
          "type": "address"
        },
        {
          "internalType": "string",
          "name": "projectTitle",
          "type": "string"
        },
        {
          "internalType": "string",
          "name": "projectDescription",
          "type": "string"
        },
        {
          "internalType": "string",
          "name": "projectImageLink",
          "type": "string"
        },
        {
          "internalType": "uint256",
          "name": "fundRaisingDeadline",
          "type": "uint256"
        },
        {
          "internalType": "uint256",
          "name": "projectGoalAmount",
          "type": "uint256"
        }
      ],
      "stateMutability": "nonpayable",
      "type": "constructor"
    },
    {
      "anonymous": false,
      "inputs": [
        {
          "indexed": false,
          "internalType": "address",
          "name": "recipient",
          "type": "address"
        }
      ],
      "name": "CreatorPaid",
      "type": "event"
    },
    {
      "anonymous": false,
      "inputs": [
        {
          "indexed": false,
          "internalType": "address",
          "name": "contributor",
          "type": "address"
        },
        {
          "indexed": false,
          "internalType": "uint256",
          "name": "amount",
          "type": "uint256"
        },
        {
          "indexed": false,
          "internalType": "uint256",
          "name": "currentTotal",
          "type": "uint256"
        }
      ],
      "name": "ReceivedFunding",
      "type": "event"
    },
    {
      "inputs": [],
      "name": "completeAt",
      "outputs": [
        {
          "internalType": "uint256",
          "name": "",
          "type": "uint256"
        }
      ],
      "stateMutability": "view",
      "type": "function"
    },
    {
      "inputs": [
        {
          "internalType": "address",
          "name": "",
          "type": "address"
        }
      ],
      "name": "contributions",
      "outputs": [
        {
          "internalType": "uint256",
          "name": "",
          "type": "uint256"
        }
      ],
      "stateMutability": "view",
      "type": "function"
    },
    {
      "inputs": [],
      "name": "creator",
      "outputs": [
        {
          "internalType": "address payable",
          "name": "",
          "type": "address"
        }
      ],
      "stateMutability": "view",
      "type": "function"
    },
    {
      "inputs": [],
      "name": "currentBalance",
      "outputs": [
        {
          "internalType": "uint256",
          "name": "",
          "type": "uint256"
        }
      ],
      "stateMutability": "view",
      "type": "function"
    },
    {
      "inputs": [],
      "name": "description",
      "outputs": [
        {
          "internalType": "string",
          "name": "",
          "type": "string"
        }
      ],
      "stateMutability": "view",
      "type": "function"
    },
    {
      "inputs": [],
      "name": "goalAmount",
      "outputs": [
        {
          "internalType": "uint256",
          "name": "",
          "type": "uint256"
        }
      ],
      "stateMutability": "view",
      "type": "function"
    },
    {
      "inputs": [],
      "name": "imageLink",
      "outputs": [
        {
          "internalType": "string",
          "name": "",
          "type": "string"
        }
      ],
      "stateMutability": "view",
      "type": "function"
    },
    {
      "inputs": [],
      "name": "raisingDeadline",
      "outputs": [
        {
          "internalType": "uint256",
          "name": "",
          "type": "uint256"
        }
      ],
      "stateMutability": "view",
      "type": "function"
    },
    {
      "inputs": [],
      "name": "state",
      "outputs": [
        {
          "internalType": "enum Project.ProjectState",
          "name": "",
          "type": "uint8"
        }
      ],
      "stateMutability": "view",
      "type": "function"
    },
    {
      "inputs": [],
      "name": "title",
      "outputs": [
        {
          "internalType": "string",
          "name": "",
          "type": "string"
        }
      ],
      "stateMutability": "view",
      "type": "function"
    },
    {
      "inputs": [],
      "name": "contribute",
      "outputs": [],
      "stateMutability": "payable",
      "type": "function"
    },
    {
      "inputs": [],
      "name": "checkIfFundingCompleteOrExpired",
      "outputs": [],
      "stateMutability": "nonpayable",
      "type": "function"
    },
    {
      "inputs": [],
      "name": "getDetails",
      "outputs": [
        {
          "internalType": "address payable",
          "name": "projectCreator",
          "type": "address"
        },
        {
          "internalType": "string",
          "name": "projectTitle",
          "type": "string"
        },
        {
          "internalType": "string",
          "name": "projectDescription",
          "type": "string"
        },
        {
          "internalType": "string",
          "name": "projectImageLink",
          "type": "string"
        },
        {
          "internalType": "uint256",
          "name": "fundRaisingDeadline",
          "type": "uint256"
        },
        {
          "internalType": "enum Project.ProjectState",
          "name": "currentState",
          "type": "uint8"
        },
        {
          "internalType": "uint256",
          "name": "projectGoalAmount",
          "type": "uint256"
        },
        {
          "internalType": "uint256",
          "name": "currentAmount",
          "type": "uint256"
        }
      ],
      "stateMutability": "view",
      "type": "function"
    }
  ],
  "bytecode": "0x60806040526000600860006101000a81548160ff0219169083600281111562000051577f4e487b7100000000000000000000000000000000000000000000000000000000600052602160045260246000fd5b02179055503480156200006357600080fd5b506040516200151f3803806200151f833981810160405281019062000089919062000286565b856000806101000a81548173ffffffffffffffffffffffffffffffffffffffff021916908373ffffffffffffffffffffffffffffffffffffffff1602179055508460059080519060200190620000e192919062000136565b508360069080519060200190620000fa92919062000136565b5082600790805190602001906200011392919062000136565b50806001819055508160048190555060006003819055505050505050506200050a565b828054620001449062000442565b90600052602060002090601f016020900481019282620001685760008555620001b4565b82601f106200018357805160ff1916838001178555620001b4565b82800160010185558215620001b4579182015b82811115620001b357825182559160200191906001019062000196565b5b509050620001c39190620001c7565b5090565b5b80821115620001e2576000816000905550600101620001c8565b5090565b6000620001fd620001f7846200039b565b62000367565b9050828152602081018484840111156200021657600080fd5b620002238482856200040c565b509392505050565b6000815190506200023c81620004d6565b92915050565b600082601f8301126200025457600080fd5b815162000266848260208601620001e6565b91505092915050565b6000815190506200028081620004f0565b92915050565b60008060008060008060c08789031215620002a057600080fd5b6000620002b089828a016200022b565b965050602087015167ffffffffffffffff811115620002ce57600080fd5b620002dc89828a0162000242565b955050604087015167ffffffffffffffff811115620002fa57600080fd5b6200030889828a0162000242565b945050606087015167ffffffffffffffff8111156200032657600080fd5b6200033489828a0162000242565b93505060806200034789828a016200026f565b92505060a06200035a89828a016200026f565b9150509295509295509295565b6000604051905081810181811067ffffffffffffffff82111715620003915762000390620004a7565b5b8060405250919050565b600067ffffffffffffffff821115620003b957620003b8620004a7565b5b601f19601f8301169050602081019050919050565b6000620003db82620003e2565b9050919050565b600073ffffffffffffffffffffffffffffffffffffffff82169050919050565b6000819050919050565b60005b838110156200042c5780820151818401526020810190506200040f565b838111156200043c576000848401525b50505050565b600060028204905060018216806200045b57607f821691505b6020821081141562000472576200047162000478565b5b50919050565b7f4e487b7100000000000000000000000000000000000000000000000000000000600052602260045260246000fd5b7f4e487b7100000000000000000000000000000000000000000000000000000000600052604160045260246000fd5b620004e181620003ce565b8114620004ed57600080fd5b50565b620004fb8162000402565b81146200050757600080fd5b50565b611005806200051a6000396000f3fe6080604052600436106100c25760003560e01c80637284e4161161007f578063caf7b75911610059578063caf7b75914610248578063ce845d1d14610273578063d7bb99ba1461029e578063fbbf93a0146102a8576100c2565b80637284e416146101db57806386f3258614610206578063c19d93fb1461021d576100c2565b806302d05d3f146100c75780632636b945146100f257806342e94c901461011d5780634a79d50c1461015a5780634c4cea5a14610185578063510b1183146101b0575b600080fd5b3480156100d357600080fd5b506100dc6102da565b6040516100e99190610c49565b60405180910390f35b3480156100fe57600080fd5b506101076102fe565b6040516101149190610d6b565b60405180910390f35b34801561012957600080fd5b50610144600480360381019061013f9190610b81565b610304565b6040516101519190610d6b565b60405180910390f35b34801561016657600080fd5b5061016f61031c565b60405161017c9190610d49565b60405180910390f35b34801561019157600080fd5b5061019a6103aa565b6040516101a79190610d6b565b60405180910390f35b3480156101bc57600080fd5b506101c56103b0565b6040516101d29190610d6b565b60405180910390f35b3480156101e757600080fd5b506101f06103b6565b6040516101fd9190610d49565b60405180910390f35b34801561021257600080fd5b5061021b610444565b005b34801561022957600080fd5b50610232610514565b60405161023f9190610d2e565b60405180910390f35b34801561025457600080fd5b5061025d610527565b60405161026a9190610d49565b60405180910390f35b34801561027f57600080fd5b506102886105b5565b6040516102959190610d6b565b60405180910390f35b6102a66105bb565b005b3480156102b457600080fd5b506102bd610799565b6040516102d1989796959493929190610c64565b60405180910390f35b60008054906101000a900473ffffffffffffffffffffffffffffffffffffffff1681565b60015481565b60096020528060005260406000206000915090505481565b6005805461032990610ed4565b80601f016020809104026020016040519081016040528092919081815260200182805461035590610ed4565b80156103a25780601f10610377576101008083540402835291602001916103a2565b820191906000526020600020905b81548152906001019060200180831161038557829003601f168201915b505050505081565b60025481565b60045481565b600680546103c390610ed4565b80601f01602080910402602001604051908101604052809291908181526020018280546103ef90610ed4565b801561043c5780601f106104115761010080835404028352916020019161043c565b820191906000526020600020905b81548152906001019060200180831161041f57829003601f168201915b505050505081565b600154600354106104ae576002600860006101000a81548160ff0219169083600281111561049b577f4e487b7100000000000000000000000000000000000000000000000000000000600052602160045260246000fd5b02179055506104a861099b565b5061050b565b60045442111561050a576001600860006101000a81548160ff02191690836002811115610504577f4e487b7100000000000000000000000000000000000000000000000000000000600052602160045260246000fd5b02179055505b5b42600281905550565b600860009054906101000a900460ff1681565b6007805461053490610ed4565b80601f016020809104026020016040519081016040528092919081815260200182805461056090610ed4565b80156105ad5780601f10610582576101008083540402835291602001916105ad565b820191906000526020600020905b81548152906001019060200180831161059057829003601f168201915b505050505081565b60035481565b60008060028111156105f6577f4e487b7100000000000000000000000000000000000000000000000000000000600052602160045260246000fd5b600860009054906101000a900460ff16600281111561063e577f4e487b7100000000000000000000000000000000000000000000000000000000600052602160045260246000fd5b1461064857600080fd5b60008054906101000a900473ffffffffffffffffffffffffffffffffffffffff1673ffffffffffffffffffffffffffffffffffffffff163373ffffffffffffffffffffffffffffffffffffffff1614156106a157600080fd5b6106f334600960003373ffffffffffffffffffffffffffffffffffffffff1673ffffffffffffffffffffffffffffffffffffffff16815260200190815260200160002054610b5690919063ffffffff16565b600960003373ffffffffffffffffffffffffffffffffffffffff1673ffffffffffffffffffffffffffffffffffffffff1681526020019081526020016000208190555061074b34600354610b5690919063ffffffff16565b6003819055507fb1bd58229606cd4dec94cb51b41275ea217cfa548aac87d25510ea49595312e5333460035460405161078693929190610cf7565b60405180910390a1610796610444565b50565b6000606080606060008060008060008054906101000a900473ffffffffffffffffffffffffffffffffffffffff169750600580546107d690610ed4565b80601f016020809104026020016040519081016040528092919081815260200182805461080290610ed4565b801561084f5780601f106108245761010080835404028352916020019161084f565b820191906000526020600020905b81548152906001019060200180831161083257829003601f168201915b505050505096506006805461086390610ed4565b80601f016020809104026020016040519081016040528092919081815260200182805461088f90610ed4565b80156108dc5780601f106108b1576101008083540402835291602001916108dc565b820191906000526020600020905b8154815290600101906020018083116108bf57829003601f168201915b50505050509550600780546108f090610ed4565b80601f016020809104026020016040519081016040528092919081815260200182805461091c90610ed4565b80156109695780601f1061093e57610100808354040283529160200191610969565b820191906000526020600020905b81548152906001019060200180831161094c57829003601f168201915b505050505094506004549350600860009054906101000a900460ff169250600154915060035490509091929394959697565b600060028060028111156109d8577f4e487b7100000000000000000000000000000000000000000000000000000000600052602160045260246000fd5b600860009054906101000a900460ff166002811115610a20577f4e487b7100000000000000000000000000000000000000000000000000000000600052602160045260246000fd5b14610a2a57600080fd5b60006003549050600060038190555060008054906101000a900473ffffffffffffffffffffffffffffffffffffffff1673ffffffffffffffffffffffffffffffffffffffff166108fc829081150290604051600060405180830381858888f1935050505015610af4577f2f256415efc8561af8db667cb242964b19be7380f379ccdafaa0e54a6f6b706960008054906101000a900473ffffffffffffffffffffffffffffffffffffffff16604051610ae29190610c2e565b60405180910390a16001925050610b52565b806003819055506002600860006101000a81548160ff02191690836002811115610b47577f4e487b7100000000000000000000000000000000000000000000000000000000600052602160045260246000fd5b021790555060009250505b5090565b60008183610b649190610da2565b905092915050565b600081359050610b7b81610fb8565b92915050565b600060208284031215610b9357600080fd5b6000610ba184828501610b6c565b91505092915050565b610bb381610e59565b82525050565b610bc281610e0a565b82525050565b610bd181610df8565b82525050565b610be081610e6b565b82525050565b6000610bf182610d86565b610bfb8185610d91565b9350610c0b818560208601610ea1565b610c1481610f93565b840191505092915050565b610c2881610e4f565b82525050565b6000602082019050610c436000830184610baa565b92915050565b6000602082019050610c5e6000830184610bb9565b92915050565b600061010082019050610c7a600083018b610bb9565b8181036020830152610c8c818a610be6565b90508181036040830152610ca08189610be6565b90508181036060830152610cb48188610be6565b9050610cc36080830187610c1f565b610cd060a0830186610bd7565b610cdd60c0830185610c1f565b610cea60e0830184610c1f565b9998505050505050505050565b6000606082019050610d0c6000830186610bc8565b610d196020830185610c1f565b610d266040830184610c1f565b949350505050565b6000602082019050610d436000830184610bd7565b92915050565b60006020820190508181036000830152610d638184610be6565b905092915050565b6000602082019050610d806000830184610c1f565b92915050565b600081519050919050565b600082825260208201905092915050565b6000610dad82610e4f565b9150610db883610e4f565b9250827fffffffffffffffffffffffffffffffffffffffffffffffffffffffffffffffff03821115610ded57610dec610f06565b5b828201905092915050565b6000610e0382610e2f565b9050919050565b6000610e1582610e2f565b9050919050565b6000819050610e2a82610fa4565b919050565b600073ffffffffffffffffffffffffffffffffffffffff82169050919050565b6000819050919050565b6000610e6482610e7d565b9050919050565b6000610e7682610e1c565b9050919050565b6000610e8882610e8f565b9050919050565b6000610e9a82610e2f565b9050919050565b60005b83811015610ebf578082015181840152602081019050610ea4565b83811115610ece576000848401525b50505050565b60006002820490506001821680610eec57607f821691505b60208210811415610f0057610eff610f64565b5b50919050565b7f4e487b7100000000000000000000000000000000000000000000000000000000600052601160045260246000fd5b7f4e487b7100000000000000000000000000000000000000000000000000000000600052602160045260246000fd5b7f4e487b7100000000000000000000000000000000000000000000000000000000600052602260045260246000fd5b6000601f19601f8301169050919050565b60038110610fb557610fb4610f35565b5b50565b610fc181610df8565b8114610fcc57600080fd5b5056fea26469706673582212203ec01a3858467708a21887445502aaf25a0e9fc51d5923a231e81626c9b2daf364736f6c63430008000033",
  "immutableReferences": {},
  "source": "// SPDX-License-Identifier: MIT\n\n/* NOTE: This contract is based on https://github.com/openberry-ac/crowdfunding\n   and this tutorial written by Sam Benemerito: https://medium.com/openberry/creating-a-simple-crowdfunding-dapp-with-ethereum-solidity-and-vue-js-69ddb8e132dd */\n\npragma solidity >=0.4.22 <0.9.0;\n\n// Importing OpenZeppelin's SafeMath Implementation\nimport \"@openzeppelin/contracts/utils/math/SafeMath.sol\";\n\ncontract CeloCrowdfund {\n  using SafeMath for uint256; \n\n  // List all the projects \n  Project[] private projects; \n\n  // event for when new project starts\n  event ProjectStarted(\n    address contractAddress,\n    address projectCreator,\n    string title,\n    string description, \n    string imageLink,  \n    uint256 fundRaisingDeadline,\n    uint256 goalAmount\n  ); \n\n  function startProject(\n    string calldata title,\n    string calldata description,\n    string calldata imageLink, \n    uint durationInDays, \n    uint amountToRaise\n  ) external {\n    uint raiseUntil = block.timestamp.add(durationInDays.mul(1 days)); \n    Project newProject = new Project (payable(msg.sender), title, description, imageLink, raiseUntil, amountToRaise); \n    projects.push(newProject); \n    emit ProjectStarted(\n      address(newProject),\n      msg.sender, \n      title,\n      description, \n      imageLink, \n      raiseUntil, \n      amountToRaise\n    );\n  }\n\n  function returnProjects() external view returns(Project[] memory) {\n    return projects; \n  }\n}\n\ncontract Project {\n  using SafeMath for uint256;\n\n  enum ProjectState {\n    Fundraising, \n    Expired, \n    Successful\n  }\n\n  address payable public creator; \n  uint public goalAmount; \n  uint public completeAt; \n  uint256 public currentBalance; \n  uint public raisingDeadline; \n  string public title;\n  string public description; \n  string public imageLink;\n\n  ProjectState public state = ProjectState.Fundraising; // start w/ fundraising \n  mapping (address => uint) public contributions;\n  \n  // Event when funding is received\n  event ReceivedFunding(address contributor, uint amount, uint currentTotal);\n\n  // Event for when the project creator has received their funds\n  event CreatorPaid(address recipient); \n\n  modifier theState(ProjectState _state) {\n    require(state == _state);\n    _; \n  }\n\n  constructor\n  (\n    address payable projectCreator, \n    string memory projectTitle,\n    string memory projectDescription,\n    string memory projectImageLink, \n    uint fundRaisingDeadline,\n    uint projectGoalAmount\n  ) {\n    creator = projectCreator; \n    title = projectTitle; \n    description = projectDescription;\n    imageLink = projectImageLink;\n    goalAmount = projectGoalAmount;\n    raisingDeadline = fundRaisingDeadline;\n    currentBalance = 0; \n  }\n\n  // Fund a certain project\n  function contribute() external theState(ProjectState.Fundraising) payable {\n    require(msg.sender != creator);\n    contributions[msg.sender] = contributions[msg.sender].add(msg.value);\n    currentBalance = currentBalance.add(msg.value);\n    emit ReceivedFunding(msg.sender, msg.value, currentBalance);\n    checkIfFundingCompleteOrExpired();\n  }\n\n  // check project state\n  function checkIfFundingCompleteOrExpired() public {\n    if (currentBalance >= goalAmount) {\n      state = ProjectState.Successful; \n      payOut(); \n    } else if (block.timestamp > raisingDeadline) {\n      state = ProjectState.Expired;\n    }\n    completeAt = block.timestamp; \n  }\n\n  function payOut() internal theState(ProjectState.Successful) returns (bool) {\n    uint256 totalRaised = currentBalance; \n    currentBalance = 0; \n\n    if (creator.send(totalRaised)) {\n      emit CreatorPaid(creator);\n      return true; \n    } else { \n      currentBalance = totalRaised; \n      state = ProjectState.Successful;\n    }\n\n    return false; \n  }\n\n  function getDetails() public view returns \n  (\n    address payable projectCreator, \n    string memory projectTitle,\n    string memory projectDescription,\n    string memory projectImageLink, \n    uint fundRaisingDeadline,\n    ProjectState currentState, \n    uint256 projectGoalAmount,\n    uint256 currentAmount\n  ) {\n    projectCreator = creator; \n    projectTitle = title;\n    projectDescription = description;\n    projectImageLink = imageLink; \n    fundRaisingDeadline = raisingDeadline;\n    currentState = state; \n    projectGoalAmount = goalAmount; \n    currentAmount = currentBalance; \n  }\n}",
  "sourcePath": "/Users/alex/Local/celoCrowdfunding-contracts/contracts/CeloCrowdfund.sol",
  "compiler": {
    "name": "solc",
    "version": "0.8.0+commit.c7dfd78e.Emscripten.clang"
  },
  "schemaVersion": "3.3.4",
  "updatedAt": "2021-03-30T00:03:25.977Z",
  "devdoc": {
    "kind": "dev",
    "methods": {},
    "version": 1
  },
  "userdoc": {
    "kind": "user",
    "methods": {},
    "version": 1
  }
}