{
  "contractName": "Project",
  "abi": [
    {
      "inputs": [
        {
          "internalType": "contract IERC20",
          "name": "token",
          "type": "address"
        },
        {
          "internalType": "address payable",
          "name": "projectCreator",
          "type": "address"
        },
        {
          "internalType": "string",
          "name": "projectCreatorName",
          "type": "string"
        },
        {
          "internalType": "string",
          "name": "projectTitle",
          "type": "string"
        },
        {
          "internalType": "string",
          "name": "projectDescription",
          "type": "string"
        },
        {
          "internalType": "string",
          "name": "projectImageLink",
          "type": "string"
        },
        {
          "internalType": "uint256",
          "name": "fundRaisingDeadline",
          "type": "uint256"
        },
        {
          "internalType": "uint256",
          "name": "projectGoalAmount",
          "type": "uint256"
        }
      ],
      "stateMutability": "nonpayable",
      "type": "constructor"
    },
    {
      "anonymous": false,
      "inputs": [
        {
          "indexed": false,
          "internalType": "address",
          "name": "recipient",
          "type": "address"
        }
      ],
      "name": "CreatorPaid",
      "type": "event"
    },
    {
      "anonymous": false,
      "inputs": [
        {
          "indexed": false,
          "internalType": "address",
          "name": "contributor",
          "type": "address"
        },
        {
          "indexed": false,
          "internalType": "uint256",
          "name": "amount",
          "type": "uint256"
        },
        {
          "indexed": false,
          "internalType": "uint256",
          "name": "currentTotal",
          "type": "uint256"
        }
      ],
      "name": "ReceivedFunding",
      "type": "event"
    },
    {
      "inputs": [
        {
          "internalType": "address",
          "name": "",
          "type": "address"
        }
      ],
      "name": "contributions",
      "outputs": [
        {
          "internalType": "uint256",
          "name": "",
          "type": "uint256"
        }
      ],
      "stateMutability": "view",
      "type": "function"
    },
    {
      "inputs": [],
      "name": "creator",
      "outputs": [
        {
          "internalType": "address payable",
          "name": "",
          "type": "address"
        }
      ],
      "stateMutability": "view",
      "type": "function"
    },
    {
      "inputs": [],
      "name": "creatorName",
      "outputs": [
        {
          "internalType": "string",
          "name": "",
          "type": "string"
        }
      ],
      "stateMutability": "view",
      "type": "function"
    },
    {
      "inputs": [],
      "name": "currentBalance",
      "outputs": [
        {
          "internalType": "uint256",
          "name": "",
          "type": "uint256"
        }
      ],
      "stateMutability": "view",
      "type": "function"
    },
    {
      "inputs": [],
      "name": "description",
      "outputs": [
        {
          "internalType": "string",
          "name": "",
          "type": "string"
        }
      ],
      "stateMutability": "view",
      "type": "function"
    },
    {
      "inputs": [],
      "name": "goalAmount",
      "outputs": [
        {
          "internalType": "uint256",
          "name": "",
          "type": "uint256"
        }
      ],
      "stateMutability": "view",
      "type": "function"
    },
    {
      "inputs": [],
      "name": "imageLink",
      "outputs": [
        {
          "internalType": "string",
          "name": "",
          "type": "string"
        }
      ],
      "stateMutability": "view",
      "type": "function"
    },
    {
      "inputs": [],
      "name": "raisingDeadline",
      "outputs": [
        {
          "internalType": "uint256",
          "name": "",
          "type": "uint256"
        }
      ],
      "stateMutability": "view",
      "type": "function"
    },
    {
      "inputs": [],
      "name": "state",
      "outputs": [
        {
          "internalType": "enum Project.ProjectState",
          "name": "",
          "type": "uint8"
        }
      ],
      "stateMutability": "view",
      "type": "function"
    },
    {
      "inputs": [],
      "name": "title",
      "outputs": [
        {
          "internalType": "string",
          "name": "",
          "type": "string"
        }
      ],
      "stateMutability": "view",
      "type": "function"
    },
    {
      "inputs": [],
      "name": "totalRaised",
      "outputs": [
        {
          "internalType": "uint256",
          "name": "",
          "type": "uint256"
        }
      ],
      "stateMutability": "view",
      "type": "function"
    },
    {
      "inputs": [
        {
          "internalType": "uint256",
          "name": "amount",
          "type": "uint256"
        }
      ],
      "name": "contribute",
      "outputs": [],
      "stateMutability": "payable",
      "type": "function"
    },
    {
      "inputs": [],
      "name": "checkIfFundingExpired",
      "outputs": [],
      "stateMutability": "nonpayable",
      "type": "function"
    },
    {
      "inputs": [],
      "name": "payOut",
      "outputs": [
        {
          "internalType": "bool",
          "name": "result",
          "type": "bool"
        }
      ],
      "stateMutability": "nonpayable",
      "type": "function"
    },
    {
      "inputs": [],
      "name": "getDetails",
      "outputs": [
        {
          "internalType": "address payable",
          "name": "projectCreator",
          "type": "address"
        },
        {
          "internalType": "string",
          "name": "projectCreatorName",
          "type": "string"
        },
        {
          "internalType": "string",
          "name": "projectTitle",
          "type": "string"
        },
        {
          "internalType": "string",
          "name": "projectDescription",
          "type": "string"
        },
        {
          "internalType": "string",
          "name": "projectImageLink",
          "type": "string"
        },
        {
          "internalType": "uint256",
          "name": "fundRaisingDeadline",
          "type": "uint256"
        },
        {
          "internalType": "enum Project.ProjectState",
          "name": "currentState",
          "type": "uint8"
        },
        {
          "internalType": "uint256",
          "name": "projectGoalAmount",
          "type": "uint256"
        },
        {
          "internalType": "uint256",
          "name": "currentAmount",
          "type": "uint256"
        },
        {
          "internalType": "uint256",
          "name": "projectTotalRaised",
          "type": "uint256"
        }
      ],
      "stateMutability": "view",
      "type": "function"
    }
  ],
  "bytecode": "0x60806040526000600a60006101000a81548160ff0219169083600281111562000051577f4e487b7100000000000000000000000000000000000000000000000000000000600052602160045260246000fd5b02179055503480156200006357600080fd5b50604051620019a2380380620019a28339818101604052810190620000899190620002f9565b876000806101000a81548173ffffffffffffffffffffffffffffffffffffffff021916908373ffffffffffffffffffffffffffffffffffffffff1602179055508560069080519060200190620000e192919062000192565b5086600160006101000a81548173ffffffffffffffffffffffffffffffffffffffff021916908373ffffffffffffffffffffffffffffffffffffffff16021790555084600790805190602001906200013b92919062000192565b5083600890805190602001906200015492919062000192565b5082600990805190602001906200016d92919062000192565b5080600281905550816005819055506000600481905550505050505050505062000605565b828054620001a09062000523565b90600052602060002090601f016020900481019282620001c4576000855562000210565b82601f10620001df57805160ff191683800117855562000210565b8280016001018555821562000210579182015b828111156200020f578251825591602001919060010190620001f2565b5b5090506200021f919062000223565b5090565b5b808211156200023e57600081600090555060010162000224565b5090565b600062000259620002538462000454565b62000420565b9050828152602081018484840111156200027257600080fd5b6200027f848285620004ed565b509392505050565b6000815190506200029881620005b7565b92915050565b600081519050620002af81620005d1565b92915050565b600082601f830112620002c757600080fd5b8151620002d984826020860162000242565b91505092915050565b600081519050620002f381620005eb565b92915050565b600080600080600080600080610100898b0312156200031757600080fd5b6000620003278b828c016200029e565b98505060206200033a8b828c0162000287565b975050604089015167ffffffffffffffff8111156200035857600080fd5b620003668b828c01620002b5565b965050606089015167ffffffffffffffff8111156200038457600080fd5b620003928b828c01620002b5565b955050608089015167ffffffffffffffff811115620003b057600080fd5b620003be8b828c01620002b5565b94505060a089015167ffffffffffffffff811115620003dc57600080fd5b620003ea8b828c01620002b5565b93505060c0620003fd8b828c01620002e2565b92505060e0620004108b828c01620002e2565b9150509295985092959890939650565b6000604051905081810181811067ffffffffffffffff821117156200044a576200044962000588565b5b8060405250919050565b600067ffffffffffffffff82111562000472576200047162000588565b5b601f19601f8301169050602081019050919050565b60006200049482620004c3565b9050919050565b6000620004a882620004c3565b9050919050565b6000620004bc8262000487565b9050919050565b600073ffffffffffffffffffffffffffffffffffffffff82169050919050565b6000819050919050565b60005b838110156200050d578082015181840152602081019050620004f0565b838111156200051d576000848401525b50505050565b600060028204905060018216806200053c57607f821691505b6020821081141562000553576200055262000559565b5b50919050565b7f4e487b7100000000000000000000000000000000000000000000000000000000600052602260045260246000fd5b7f4e487b7100000000000000000000000000000000000000000000000000000000600052604160045260246000fd5b620005c2816200049b565b8114620005ce57600080fd5b50565b620005dc81620004af565b8114620005e857600080fd5b50565b620005f681620004e3565b81146200060257600080fd5b50565b61138d80620006156000396000f3fe6080604052600436106100e85760003560e01c80637284e4161161008a578063c5c4744c11610059578063c5c4744c146102b5578063caf7b759146102e0578063ce845d1d1461030b578063fbbf93a014610336576100e8565b80637284e41614610218578063c19d93fb14610243578063c1cbbca71461026e578063c20524031461028a576100e8565b80632636b945116100c65780632636b9451461015a57806342e94c90146101855780634a79d50c146101c2578063510b1183146101ed576100e8565b806302d05d3f146100ed57806315879c29146101185780631f6f90bd1461012f575b600080fd5b3480156100f957600080fd5b5061010261036a565b60405161010f9190610ef7565b60405180910390f35b34801561012457600080fd5b5061012d610390565b005b34801561013b57600080fd5b506101446103ee565b6040516101519190611097565b60405180910390f35b34801561016657600080fd5b5061016f61047c565b60405161017c91906110b9565b60405180910390f35b34801561019157600080fd5b506101ac60048036038101906101a79190610dce565b610482565b6040516101b991906110b9565b60405180910390f35b3480156101ce57600080fd5b506101d761049a565b6040516101e49190611097565b60405180910390f35b3480156101f957600080fd5b50610202610528565b60405161020f91906110b9565b60405180910390f35b34801561022457600080fd5b5061022d61052e565b60405161023a9190611097565b60405180910390f35b34801561024f57600080fd5b506102586105bc565b604051610265919061107c565b60405180910390f35b61028860048036038101906102839190610e20565b6105cf565b005b34801561029657600080fd5b5061029f61080e565b6040516102ac9190611061565b60405180910390f35b3480156102c157600080fd5b506102ca610a44565b6040516102d791906110b9565b60405180910390f35b3480156102ec57600080fd5b506102f5610a4a565b6040516103029190611097565b60405180910390f35b34801561031757600080fd5b50610320610ad8565b60405161032d91906110b9565b60405180910390f35b34801561034257600080fd5b5061034b610ade565b6040516103619a99989796959493929190610f12565b60405180910390f35b600160009054906101000a900473ffffffffffffffffffffffffffffffffffffffff1681565b6005544211156103ec576001600a60006101000a81548160ff021916908360028111156103e6577f4e487b7100000000000000000000000000000000000000000000000000000000600052602160045260246000fd5b02179055505b565b600680546103fb9061122e565b80601f01602080910402602001604051908101604052809291908181526020018280546104279061122e565b80156104745780601f1061044957610100808354040283529160200191610474565b820191906000526020600020905b81548152906001019060200180831161045757829003601f168201915b505050505081565b60025481565b600b6020528060005260406000206000915090505481565b600780546104a79061122e565b80601f01602080910402602001604051908101604052809291908181526020018280546104d39061122e565b80156105205780601f106104f557610100808354040283529160200191610520565b820191906000526020600020905b81548152906001019060200180831161050357829003601f168201915b505050505081565b60055481565b6008805461053b9061122e565b80601f01602080910402602001604051908101604052809291908181526020018280546105679061122e565b80156105b45780601f10610589576101008083540402835291602001916105b4565b820191906000526020600020905b81548152906001019060200180831161059757829003601f168201915b505050505081565b600a60009054906101000a900460ff1681565b600080600281111561060a577f4e487b7100000000000000000000000000000000000000000000000000000000600052602160045260246000fd5b600a60009054906101000a900460ff166002811115610652577f4e487b7100000000000000000000000000000000000000000000000000000000600052602160045260246000fd5b1461065c57600080fd5b60008054906101000a900473ffffffffffffffffffffffffffffffffffffffff1673ffffffffffffffffffffffffffffffffffffffff166323b872dd3330856040518463ffffffff1660e01b81526004016106b993929190610fca565b602060405180830381600087803b1580156106d357600080fd5b505af11580156106e7573d6000803e3d6000fd5b505050506040513d601f19601f8201168201806040525081019061070b9190610df7565b5061075e82600b60003373ffffffffffffffffffffffffffffffffffffffff1673ffffffffffffffffffffffffffffffffffffffff16815260200190815260200160002054610d7990919063ffffffff16565b600b60003373ffffffffffffffffffffffffffffffffffffffff1673ffffffffffffffffffffffffffffffffffffffff168152602001908152602001600020819055506107b682600454610d7990919063ffffffff16565b6004819055506004546003819055507fb1bd58229606cd4dec94cb51b41275ea217cfa548aac87d25510ea49595312e533836004546040516107fa9392919061102a565b60405180910390a161080a610390565b5050565b6000600160009054906101000a900473ffffffffffffffffffffffffffffffffffffffff1673ffffffffffffffffffffffffffffffffffffffff163373ffffffffffffffffffffffffffffffffffffffff161461086a57600080fd5b600454600381905550600060048190555060008054906101000a900473ffffffffffffffffffffffffffffffffffffffff1673ffffffffffffffffffffffffffffffffffffffff1663a9059cbb336003546040518363ffffffff1660e01b81526004016108d8929190611001565b602060405180830381600087803b1580156108f257600080fd5b505af1158015610906573d6000803e3d6000fd5b505050506040513d601f19601f8201168201806040525081019061092a9190610df7565b156109e2577f2f256415efc8561af8db667cb242964b19be7380f379ccdafaa0e54a6f6b7069600160009054906101000a900473ffffffffffffffffffffffffffffffffffffffff166040516109809190610edc565b60405180910390a16002600a60006101000a81548160ff021916908360028111156109d4577f4e487b7100000000000000000000000000000000000000000000000000000000600052602160045260246000fd5b021790555060019050610a41565b6003546004819055506002600a60006101000a81548160ff02191690836002811115610a37577f4e487b7100000000000000000000000000000000000000000000000000000000600052602160045260246000fd5b0217905550600090505b90565b60035481565b60098054610a579061122e565b80601f0160208091040260200160405190810160405280929190818152602001828054610a839061122e565b8015610ad05780601f10610aa557610100808354040283529160200191610ad0565b820191906000526020600020905b815481529060010190602001808311610ab357829003601f168201915b505050505081565b60045481565b60006060806060806000806000806000600160009054906101000a900473ffffffffffffffffffffffffffffffffffffffff16995060068054610b209061122e565b80601f0160208091040260200160405190810160405280929190818152602001828054610b4c9061122e565b8015610b995780601f10610b6e57610100808354040283529160200191610b99565b820191906000526020600020905b815481529060010190602001808311610b7c57829003601f168201915b5050505050985060078054610bad9061122e565b80601f0160208091040260200160405190810160405280929190818152602001828054610bd99061122e565b8015610c265780601f10610bfb57610100808354040283529160200191610c26565b820191906000526020600020905b815481529060010190602001808311610c0957829003601f168201915b5050505050975060088054610c3a9061122e565b80601f0160208091040260200160405190810160405280929190818152602001828054610c669061122e565b8015610cb35780601f10610c8857610100808354040283529160200191610cb3565b820191906000526020600020905b815481529060010190602001808311610c9657829003601f168201915b5050505050965060098054610cc79061122e565b80601f0160208091040260200160405190810160405280929190818152602001828054610cf39061122e565b8015610d405780601f10610d1557610100808354040283529160200191610d40565b820191906000526020600020905b815481529060010190602001808311610d2357829003601f168201915b505050505095506005549450600a60009054906101000a900460ff16935060025492506004549150600354905090919293949596979899565b60008183610d8791906110f0565b905092915050565b600081359050610d9e81611312565b92915050565b600081519050610db381611329565b92915050565b600081359050610dc881611340565b92915050565b600060208284031215610de057600080fd5b6000610dee84828501610d8f565b91505092915050565b600060208284031215610e0957600080fd5b6000610e1784828501610da4565b91505092915050565b600060208284031215610e3257600080fd5b6000610e4084828501610db9565b91505092915050565b610e52816111b3565b82525050565b610e6181611158565b82525050565b610e7081611146565b82525050565b610e7f8161116a565b82525050565b610e8e816111c5565b82525050565b6000610e9f826110d4565b610ea981856110df565b9350610eb98185602086016111fb565b610ec2816112ed565b840191505092915050565b610ed6816111a9565b82525050565b6000602082019050610ef16000830184610e49565b92915050565b6000602082019050610f0c6000830184610e58565b92915050565b600061014082019050610f28600083018d610e58565b8181036020830152610f3a818c610e94565b90508181036040830152610f4e818b610e94565b90508181036060830152610f62818a610e94565b90508181036080830152610f768189610e94565b9050610f8560a0830188610ecd565b610f9260c0830187610e85565b610f9f60e0830186610ecd565b610fad610100830185610ecd565b610fbb610120830184610ecd565b9b9a5050505050505050505050565b6000606082019050610fdf6000830186610e67565b610fec6020830185610e67565b610ff96040830184610ecd565b949350505050565b60006040820190506110166000830185610e67565b6110236020830184610ecd565b9392505050565b600060608201905061103f6000830186610e67565b61104c6020830185610ecd565b6110596040830184610ecd565b949350505050565b60006020820190506110766000830184610e76565b92915050565b60006020820190506110916000830184610e85565b92915050565b600060208201905081810360008301526110b18184610e94565b905092915050565b60006020820190506110ce6000830184610ecd565b92915050565b600081519050919050565b600082825260208201905092915050565b60006110fb826111a9565b9150611106836111a9565b9250827fffffffffffffffffffffffffffffffffffffffffffffffffffffffffffffffff0382111561113b5761113a611260565b5b828201905092915050565b600061115182611189565b9050919050565b600061116382611189565b9050919050565b60008115159050919050565b6000819050611184826112fe565b919050565b600073ffffffffffffffffffffffffffffffffffffffff82169050919050565b6000819050919050565b60006111be826111d7565b9050919050565b60006111d082611176565b9050919050565b60006111e2826111e9565b9050919050565b60006111f482611189565b9050919050565b60005b838110156112195780820151818401526020810190506111fe565b83811115611228576000848401525b50505050565b6000600282049050600182168061124657607f821691505b6020821081141561125a576112596112be565b5b50919050565b7f4e487b7100000000000000000000000000000000000000000000000000000000600052601160045260246000fd5b7f4e487b7100000000000000000000000000000000000000000000000000000000600052602160045260246000fd5b7f4e487b7100000000000000000000000000000000000000000000000000000000600052602260045260246000fd5b6000601f19601f8301169050919050565b6003811061130f5761130e61128f565b5b50565b61131b81611146565b811461132657600080fd5b50565b6113328161116a565b811461133d57600080fd5b50565b611349816111a9565b811461135457600080fd5b5056fea2646970667358221220004627c6acbdcbde8cc1edaab253d98f9cc1ded0b97736f14c5b2f89ccde3ba564736f6c63430008000033",
  "immutableReferences": {},
  "source": "// SPDX-License-Identifier: MIT\npragma solidity >=0.4.22 <0.9.0;\n\n// Importing OpenZeppelin's SafeMath Implementation\nimport \"@openzeppelin/contracts/utils/math/SafeMath.sol\";\nimport \"@openzeppelin/contracts/token/ERC20/IERC20.sol\";\n\ncontract CeloCrowdfund {\n  using SafeMath for uint256; \n\n  // List all the projects \n  Project[] private projects; \n\n  // event for when new project starts\n  event ProjectStarted(\n    address contractAddress,\n    address projectCreator,\n    string creatorName,\n    string title,\n    string description, \n    string imageLink,  \n    uint256 fundRaisingDeadline,\n    uint256 goalAmount\n  ); \n\n  function startProject(\n    IERC20 cUSDToken,\n    string calldata creatorName,\n    string calldata title,\n    string calldata description,\n    string calldata imageLink, \n    uint durationInDays, \n    uint amountToRaise\n  ) external {\n    uint raiseUntil = block.timestamp.add(durationInDays.mul(1 days)); \n    Project newProject = new Project (cUSDToken, payable(msg.sender), creatorName, title, description, imageLink, raiseUntil, amountToRaise); \n    projects.push(newProject); \n    emit ProjectStarted(\n      address(newProject),\n      msg.sender, \n      creatorName,\n      title,\n      description, \n      imageLink, \n      raiseUntil, \n      amountToRaise\n    );\n  }\n\n  function returnProjects() external view returns(Project[] memory) {\n    return projects; \n  }\n}\n\ncontract Project {\n  using SafeMath for uint256;\n\n  enum ProjectState {\n    Fundraising, \n    Expired, \n    Successful\n  }\n  IERC20 private cUSDToken;\n\n  address payable public creator; \n  uint public goalAmount; \n  uint256 public totalRaised; \n  uint256 public currentBalance; \n  uint public raisingDeadline; \n  string public creatorName;\n  string public title;\n  string public description; \n  string public imageLink;\n\n  ProjectState public state = ProjectState.Fundraising; // start with fundraising \n  mapping (address => uint) public contributions;\n  \n  // Event when funding is received\n  event ReceivedFunding(address contributor, uint amount, uint currentTotal);\n\n  // Event for when the project creator has received their funds\n  event CreatorPaid(address recipient); \n\n  modifier theState(ProjectState _state) {\n    require(state == _state);\n    _; \n  }\n\n  constructor\n  (\n    IERC20 token,\n    address payable projectCreator, \n    string memory projectCreatorName,\n    string memory projectTitle,\n    string memory projectDescription,\n    string memory projectImageLink, \n    uint fundRaisingDeadline,\n    uint projectGoalAmount\n  ) {\n    cUSDToken = token; \n    creatorName = projectCreatorName;\n    creator = projectCreator; \n    title = projectTitle; \n    description = projectDescription;\n    imageLink = projectImageLink;\n    goalAmount = projectGoalAmount;\n    raisingDeadline = fundRaisingDeadline;\n    currentBalance = 0; \n  }\n\n  // Fund a certain project\n  function contribute(uint256 amount) external theState(ProjectState.Fundraising) payable {\n    cUSDToken.transferFrom(msg.sender, address(this), amount);\n\n    contributions[msg.sender] = contributions[msg.sender].add(amount);\n    currentBalance = currentBalance.add(amount);\n    totalRaised = currentBalance; \n    emit ReceivedFunding(msg.sender, amount, currentBalance);\n    checkIfFundingExpired();\n  }\n\n  // check project state\n  function checkIfFundingExpired() public {\n    if (block.timestamp > raisingDeadline) {\n      state = ProjectState.Expired;\n    }\n  }\n\n  function payOut() external returns (bool result) {\n    require(msg.sender == creator); \n\n    totalRaised = currentBalance; \n    currentBalance = 0; \n\n    if (cUSDToken.transfer(msg.sender, totalRaised)) {\n      emit CreatorPaid(creator);\n      state = ProjectState.Successful;\n      return true; \n    } else { \n      currentBalance = totalRaised; \n      state = ProjectState.Successful;\n    }\n\n    return false; \n  }\n\n  function getDetails() public view returns \n  (\n    address payable projectCreator, \n    string memory projectCreatorName,\n    string memory projectTitle,\n    string memory projectDescription,\n    string memory projectImageLink, \n    uint fundRaisingDeadline,\n    ProjectState currentState, \n    uint256 projectGoalAmount,\n    uint256 currentAmount, \n    uint256 projectTotalRaised\n  ) {\n    projectCreator = creator;\n    projectCreatorName = creatorName;  \n    projectTitle = title;\n    projectDescription = description;\n    projectImageLink = imageLink; \n    fundRaisingDeadline = raisingDeadline;\n    currentState = state; \n    projectGoalAmount = goalAmount; \n    currentAmount = currentBalance; \n    projectTotalRaised = totalRaised; \n  }\n}\n",
  "sourcePath": "/Users/alex/Local/coperacha-contracts/contracts/CeloCrowdfund.sol",
  "compiler": {
    "name": "solc",
    "version": "0.8.0+commit.c7dfd78e.Emscripten.clang"
  },
  "schemaVersion": "3.3.4",
  "updatedAt": "2021-04-11T02:59:10.057Z",
  "devdoc": {
    "kind": "dev",
    "methods": {},
    "version": 1
  },
  "userdoc": {
    "kind": "user",
    "methods": {},
    "version": 1
  }
}