{
  "contractName": "Project",
  "abi": [
    {
      "inputs": [
        {
          "internalType": "contract IERC20",
          "name": "token",
          "type": "address"
        },
        {
          "internalType": "address payable",
          "name": "projectCreator",
          "type": "address"
        },
        {
          "internalType": "string",
          "name": "projectTitle",
          "type": "string"
        },
        {
          "internalType": "string",
          "name": "projectDescription",
          "type": "string"
        },
        {
          "internalType": "string",
          "name": "projectImageLink",
          "type": "string"
        },
        {
          "internalType": "uint256",
          "name": "fundRaisingDeadline",
          "type": "uint256"
        },
        {
          "internalType": "uint256",
          "name": "projectGoalAmount",
          "type": "uint256"
        }
      ],
      "stateMutability": "nonpayable",
      "type": "constructor"
    },
    {
      "anonymous": false,
      "inputs": [
        {
          "indexed": false,
          "internalType": "address",
          "name": "recipient",
          "type": "address"
        }
      ],
      "name": "CreatorPaid",
      "type": "event"
    },
    {
      "anonymous": false,
      "inputs": [
        {
          "indexed": false,
          "internalType": "address",
          "name": "contributor",
          "type": "address"
        },
        {
          "indexed": false,
          "internalType": "uint256",
          "name": "amount",
          "type": "uint256"
        },
        {
          "indexed": false,
          "internalType": "uint256",
          "name": "currentTotal",
          "type": "uint256"
        }
      ],
      "name": "ReceivedFunding",
      "type": "event"
    },
    {
      "inputs": [
        {
          "internalType": "address",
          "name": "",
          "type": "address"
        }
      ],
      "name": "contributions",
      "outputs": [
        {
          "internalType": "uint256",
          "name": "",
          "type": "uint256"
        }
      ],
      "stateMutability": "view",
      "type": "function"
    },
    {
      "inputs": [],
      "name": "creator",
      "outputs": [
        {
          "internalType": "address payable",
          "name": "",
          "type": "address"
        }
      ],
      "stateMutability": "view",
      "type": "function"
    },
    {
      "inputs": [],
      "name": "currentBalance",
      "outputs": [
        {
          "internalType": "uint256",
          "name": "",
          "type": "uint256"
        }
      ],
      "stateMutability": "view",
      "type": "function"
    },
    {
      "inputs": [],
      "name": "description",
      "outputs": [
        {
          "internalType": "string",
          "name": "",
          "type": "string"
        }
      ],
      "stateMutability": "view",
      "type": "function"
    },
    {
      "inputs": [],
      "name": "goalAmount",
      "outputs": [
        {
          "internalType": "uint256",
          "name": "",
          "type": "uint256"
        }
      ],
      "stateMutability": "view",
      "type": "function"
    },
    {
      "inputs": [],
      "name": "imageLink",
      "outputs": [
        {
          "internalType": "string",
          "name": "",
          "type": "string"
        }
      ],
      "stateMutability": "view",
      "type": "function"
    },
    {
      "inputs": [],
      "name": "raisingDeadline",
      "outputs": [
        {
          "internalType": "uint256",
          "name": "",
          "type": "uint256"
        }
      ],
      "stateMutability": "view",
      "type": "function"
    },
    {
      "inputs": [],
      "name": "state",
      "outputs": [
        {
          "internalType": "enum Project.ProjectState",
          "name": "",
          "type": "uint8"
        }
      ],
      "stateMutability": "view",
      "type": "function"
    },
    {
      "inputs": [],
      "name": "title",
      "outputs": [
        {
          "internalType": "string",
          "name": "",
          "type": "string"
        }
      ],
      "stateMutability": "view",
      "type": "function"
    },
    {
      "inputs": [
        {
          "internalType": "uint256",
          "name": "amount",
          "type": "uint256"
        }
      ],
      "name": "contribute",
      "outputs": [],
      "stateMutability": "payable",
      "type": "function"
    },
    {
      "inputs": [],
      "name": "checkIfFundingExpired",
      "outputs": [],
      "stateMutability": "nonpayable",
      "type": "function"
    },
    {
      "inputs": [],
      "name": "payOut",
      "outputs": [
        {
          "internalType": "bool",
          "name": "result",
          "type": "bool"
        }
      ],
      "stateMutability": "nonpayable",
      "type": "function"
    },
    {
      "inputs": [],
      "name": "getDetails",
      "outputs": [
        {
          "internalType": "address payable",
          "name": "projectCreator",
          "type": "address"
        },
        {
          "internalType": "string",
          "name": "projectTitle",
          "type": "string"
        },
        {
          "internalType": "string",
          "name": "projectDescription",
          "type": "string"
        },
        {
          "internalType": "string",
          "name": "projectImageLink",
          "type": "string"
        },
        {
          "internalType": "uint256",
          "name": "fundRaisingDeadline",
          "type": "uint256"
        },
        {
          "internalType": "enum Project.ProjectState",
          "name": "currentState",
          "type": "uint8"
        },
        {
          "internalType": "uint256",
          "name": "projectGoalAmount",
          "type": "uint256"
        },
        {
          "internalType": "uint256",
          "name": "currentAmount",
          "type": "uint256"
        }
      ],
      "stateMutability": "view",
      "type": "function"
    }
  ],
  "bytecode": "0x60806040526000600860006101000a81548160ff0219169083600281111562000051577f4e487b7100000000000000000000000000000000000000000000000000000000600052602160045260246000fd5b02179055503480156200006357600080fd5b506040516200177e3803806200177e8339818101604052810190620000899190620002df565b866000806101000a81548173ffffffffffffffffffffffffffffffffffffffff021916908373ffffffffffffffffffffffffffffffffffffffff16021790555085600160006101000a81548173ffffffffffffffffffffffffffffffffffffffff021916908373ffffffffffffffffffffffffffffffffffffffff16021790555084600590805190602001906200012292919062000178565b5083600690805190602001906200013b92919062000178565b5082600790805190602001906200015492919062000178565b508060028190555081600481905550600060038190555050505050505050620005bc565b8280546200018690620004da565b90600052602060002090601f016020900481019282620001aa5760008555620001f6565b82601f10620001c557805160ff1916838001178555620001f6565b82800160010185558215620001f6579182015b82811115620001f5578251825591602001919060010190620001d8565b5b50905062000205919062000209565b5090565b5b80821115620002245760008160009055506001016200020a565b5090565b60006200023f62000239846200040b565b620003d7565b9050828152602081018484840111156200025857600080fd5b62000265848285620004a4565b509392505050565b6000815190506200027e816200056e565b92915050565b600081519050620002958162000588565b92915050565b600082601f830112620002ad57600080fd5b8151620002bf84826020860162000228565b91505092915050565b600081519050620002d981620005a2565b92915050565b600080600080600080600060e0888a031215620002fb57600080fd5b60006200030b8a828b0162000284565b97505060206200031e8a828b016200026d565b965050604088015167ffffffffffffffff8111156200033c57600080fd5b6200034a8a828b016200029b565b955050606088015167ffffffffffffffff8111156200036857600080fd5b620003768a828b016200029b565b945050608088015167ffffffffffffffff8111156200039457600080fd5b620003a28a828b016200029b565b93505060a0620003b58a828b01620002c8565b92505060c0620003c88a828b01620002c8565b91505092959891949750929550565b6000604051905081810181811067ffffffffffffffff821117156200040157620004006200053f565b5b8060405250919050565b600067ffffffffffffffff8211156200042957620004286200053f565b5b601f19601f8301169050602081019050919050565b60006200044b826200047a565b9050919050565b60006200045f826200047a565b9050919050565b600062000473826200043e565b9050919050565b600073ffffffffffffffffffffffffffffffffffffffff82169050919050565b6000819050919050565b60005b83811015620004c4578082015181840152602081019050620004a7565b83811115620004d4576000848401525b50505050565b60006002820490506001821680620004f357607f821691505b602082108114156200050a576200050962000510565b5b50919050565b7f4e487b7100000000000000000000000000000000000000000000000000000000600052602260045260246000fd5b7f4e487b7100000000000000000000000000000000000000000000000000000000600052604160045260246000fd5b620005798162000452565b81146200058557600080fd5b50565b620005938162000466565b81146200059f57600080fd5b50565b620005ad816200049a565b8114620005b957600080fd5b50565b6111b280620005cc6000396000f3fe6080604052600436106100c25760003560e01c80637284e4161161007f578063c205240311610059578063c205240314610239578063caf7b75914610264578063ce845d1d1461028f578063fbbf93a0146102ba576100c2565b80637284e416146101c7578063c19d93fb146101f2578063c1cbbca71461021d576100c2565b806302d05d3f146100c757806315879c29146100f25780632636b9451461010957806342e94c90146101345780634a79d50c14610171578063510b11831461019c575b600080fd5b3480156100d357600080fd5b506100dc6102ec565b6040516100e99190610d41565b60405180910390f35b3480156100fe57600080fd5b50610107610312565b005b34801561011557600080fd5b5061011e610370565b60405161012b9190610ede565b60405180910390f35b34801561014057600080fd5b5061015b60048036038101906101569190610c18565b610376565b6040516101689190610ede565b60405180910390f35b34801561017d57600080fd5b5061018661038e565b6040516101939190610ebc565b60405180910390f35b3480156101a857600080fd5b506101b161041c565b6040516101be9190610ede565b60405180910390f35b3480156101d357600080fd5b506101dc610422565b6040516101e99190610ebc565b60405180910390f35b3480156101fe57600080fd5b506102076104b0565b6040516102149190610ea1565b60405180910390f35b61023760048036038101906102329190610c6a565b6104c3565b005b34801561024557600080fd5b5061024e6106f9565b60405161025b9190610e86565b60405180910390f35b34801561027057600080fd5b5061027961092b565b6040516102869190610ebc565b60405180910390f35b34801561029b57600080fd5b506102a46109b9565b6040516102b19190610ede565b60405180910390f35b3480156102c657600080fd5b506102cf6109bf565b6040516102e3989796959493929190610d5c565b60405180910390f35b600160009054906101000a900473ffffffffffffffffffffffffffffffffffffffff1681565b60045442111561036e576001600860006101000a81548160ff02191690836002811115610368577f4e487b7100000000000000000000000000000000000000000000000000000000600052602160045260246000fd5b02179055505b565b60025481565b60096020528060005260406000206000915090505481565b6005805461039b90611053565b80601f01602080910402602001604051908101604052809291908181526020018280546103c790611053565b80156104145780601f106103e957610100808354040283529160200191610414565b820191906000526020600020905b8154815290600101906020018083116103f757829003601f168201915b505050505081565b60045481565b6006805461042f90611053565b80601f016020809104026020016040519081016040528092919081815260200182805461045b90611053565b80156104a85780601f1061047d576101008083540402835291602001916104a8565b820191906000526020600020905b81548152906001019060200180831161048b57829003601f168201915b505050505081565b600860009054906101000a900460ff1681565b60008060028111156104fe577f4e487b7100000000000000000000000000000000000000000000000000000000600052602160045260246000fd5b600860009054906101000a900460ff166002811115610546577f4e487b7100000000000000000000000000000000000000000000000000000000600052602160045260246000fd5b1461055057600080fd5b60008054906101000a900473ffffffffffffffffffffffffffffffffffffffff1673ffffffffffffffffffffffffffffffffffffffff166323b872dd3330856040518463ffffffff1660e01b81526004016105ad93929190610def565b602060405180830381600087803b1580156105c757600080fd5b505af11580156105db573d6000803e3d6000fd5b505050506040513d601f19601f820116820180604052508101906105ff9190610c41565b5061065282600960003373ffffffffffffffffffffffffffffffffffffffff1673ffffffffffffffffffffffffffffffffffffffff16815260200190815260200160002054610bc390919063ffffffff16565b600960003373ffffffffffffffffffffffffffffffffffffffff1673ffffffffffffffffffffffffffffffffffffffff168152602001908152602001600020819055506106aa82600354610bc390919063ffffffff16565b6003819055507fb1bd58229606cd4dec94cb51b41275ea217cfa548aac87d25510ea49595312e533836003546040516106e593929190610e4f565b60405180910390a16106f5610312565b5050565b6000600160009054906101000a900473ffffffffffffffffffffffffffffffffffffffff1673ffffffffffffffffffffffffffffffffffffffff163373ffffffffffffffffffffffffffffffffffffffff161461075557600080fd5b60006003549050600060038190555060008054906101000a900473ffffffffffffffffffffffffffffffffffffffff1673ffffffffffffffffffffffffffffffffffffffff1663a9059cbb33836040518363ffffffff1660e01b81526004016107bf929190610e26565b602060405180830381600087803b1580156107d957600080fd5b505af11580156107ed573d6000803e3d6000fd5b505050506040513d601f19601f820116820180604052508101906108119190610c41565b156108ca577f2f256415efc8561af8db667cb242964b19be7380f379ccdafaa0e54a6f6b7069600160009054906101000a900473ffffffffffffffffffffffffffffffffffffffff166040516108679190610d26565b60405180910390a16002600860006101000a81548160ff021916908360028111156108bb577f4e487b7100000000000000000000000000000000000000000000000000000000600052602160045260246000fd5b02179055506001915050610928565b806003819055506002600860006101000a81548160ff0219169083600281111561091d577f4e487b7100000000000000000000000000000000000000000000000000000000600052602160045260246000fd5b021790555060009150505b90565b6007805461093890611053565b80601f016020809104026020016040519081016040528092919081815260200182805461096490611053565b80156109b15780601f10610986576101008083540402835291602001916109b1565b820191906000526020600020905b81548152906001019060200180831161099457829003601f168201915b505050505081565b60035481565b60006060806060600080600080600160009054906101000a900473ffffffffffffffffffffffffffffffffffffffff169750600580546109fe90611053565b80601f0160208091040260200160405190810160405280929190818152602001828054610a2a90611053565b8015610a775780601f10610a4c57610100808354040283529160200191610a77565b820191906000526020600020905b815481529060010190602001808311610a5a57829003601f168201915b5050505050965060068054610a8b90611053565b80601f0160208091040260200160405190810160405280929190818152602001828054610ab790611053565b8015610b045780601f10610ad957610100808354040283529160200191610b04565b820191906000526020600020905b815481529060010190602001808311610ae757829003601f168201915b5050505050955060078054610b1890611053565b80601f0160208091040260200160405190810160405280929190818152602001828054610b4490611053565b8015610b915780601f10610b6657610100808354040283529160200191610b91565b820191906000526020600020905b815481529060010190602001808311610b7457829003601f168201915b505050505094506004549350600860009054906101000a900460ff169250600254915060035490509091929394959697565b60008183610bd19190610f15565b905092915050565b600081359050610be881611137565b92915050565b600081519050610bfd8161114e565b92915050565b600081359050610c1281611165565b92915050565b600060208284031215610c2a57600080fd5b6000610c3884828501610bd9565b91505092915050565b600060208284031215610c5357600080fd5b6000610c6184828501610bee565b91505092915050565b600060208284031215610c7c57600080fd5b6000610c8a84828501610c03565b91505092915050565b610c9c81610fd8565b82525050565b610cab81610f7d565b82525050565b610cba81610f6b565b82525050565b610cc981610f8f565b82525050565b610cd881610fea565b82525050565b6000610ce982610ef9565b610cf38185610f04565b9350610d03818560208601611020565b610d0c81611112565b840191505092915050565b610d2081610fce565b82525050565b6000602082019050610d3b6000830184610c93565b92915050565b6000602082019050610d566000830184610ca2565b92915050565b600061010082019050610d72600083018b610ca2565b8181036020830152610d84818a610cde565b90508181036040830152610d988189610cde565b90508181036060830152610dac8188610cde565b9050610dbb6080830187610d17565b610dc860a0830186610ccf565b610dd560c0830185610d17565b610de260e0830184610d17565b9998505050505050505050565b6000606082019050610e046000830186610cb1565b610e116020830185610cb1565b610e1e6040830184610d17565b949350505050565b6000604082019050610e3b6000830185610cb1565b610e486020830184610d17565b9392505050565b6000606082019050610e646000830186610cb1565b610e716020830185610d17565b610e7e6040830184610d17565b949350505050565b6000602082019050610e9b6000830184610cc0565b92915050565b6000602082019050610eb66000830184610ccf565b92915050565b60006020820190508181036000830152610ed68184610cde565b905092915050565b6000602082019050610ef36000830184610d17565b92915050565b600081519050919050565b600082825260208201905092915050565b6000610f2082610fce565b9150610f2b83610fce565b9250827fffffffffffffffffffffffffffffffffffffffffffffffffffffffffffffffff03821115610f6057610f5f611085565b5b828201905092915050565b6000610f7682610fae565b9050919050565b6000610f8882610fae565b9050919050565b60008115159050919050565b6000819050610fa982611123565b919050565b600073ffffffffffffffffffffffffffffffffffffffff82169050919050565b6000819050919050565b6000610fe382610ffc565b9050919050565b6000610ff582610f9b565b9050919050565b60006110078261100e565b9050919050565b600061101982610fae565b9050919050565b60005b8381101561103e578082015181840152602081019050611023565b8381111561104d576000848401525b50505050565b6000600282049050600182168061106b57607f821691505b6020821081141561107f5761107e6110e3565b5b50919050565b7f4e487b7100000000000000000000000000000000000000000000000000000000600052601160045260246000fd5b7f4e487b7100000000000000000000000000000000000000000000000000000000600052602160045260246000fd5b7f4e487b7100000000000000000000000000000000000000000000000000000000600052602260045260246000fd5b6000601f19601f8301169050919050565b60038110611134576111336110b4565b5b50565b61114081610f6b565b811461114b57600080fd5b50565b61115781610f8f565b811461116257600080fd5b50565b61116e81610fce565b811461117957600080fd5b5056fea264697066735822122098696d249ba3e189d6130485715977196e2c046f026eebcb8f314d827ccf6ad464736f6c63430008000033",
  "immutableReferences": {},
  "source": "// SPDX-License-Identifier: MIT\npragma solidity >=0.4.22 <0.9.0;\n\n// Importing OpenZeppelin's SafeMath Implementation\nimport \"@openzeppelin/contracts/utils/math/SafeMath.sol\";\nimport \"@openzeppelin/contracts/token/ERC20/IERC20.sol\";\n\ncontract CeloCrowdfund {\n  using SafeMath for uint256; \n\n  // List all the projects \n  Project[] private projects; \n\n  // event for when new project starts\n  event ProjectStarted(\n    address contractAddress,\n    address projectCreator,\n    string title,\n    string description, \n    string imageLink,  \n    uint256 fundRaisingDeadline,\n    uint256 goalAmount\n  ); \n\n  function startProject(\n    IERC20 cUSDToken,\n    string calldata title,\n    string calldata description,\n    string calldata imageLink, \n    uint durationInDays, \n    uint amountToRaise\n  ) external {\n    uint raiseUntil = block.timestamp.add(durationInDays.mul(1 days)); \n    Project newProject = new Project (cUSDToken, payable(msg.sender), title, description, imageLink, raiseUntil, amountToRaise); \n    projects.push(newProject); \n    emit ProjectStarted(\n      address(newProject),\n      msg.sender, \n      title,\n      description, \n      imageLink, \n      raiseUntil, \n      amountToRaise\n    );\n  }\n\n  function returnProjects() external view returns(Project[] memory) {\n    return projects; \n  }\n}\n\ncontract Project {\n  using SafeMath for uint256;\n\n  enum ProjectState {\n    Fundraising, \n    Expired, \n    Successful\n  }\n  IERC20 private cUSDToken;\n\n  address payable public creator; \n  uint public goalAmount; \n  uint256 public currentBalance; \n  uint public raisingDeadline; \n  string public title;\n  string public description; \n  string public imageLink;\n\n  ProjectState public state = ProjectState.Fundraising; // start with fundraising \n  mapping (address => uint) public contributions;\n  \n  // Event when funding is received\n  event ReceivedFunding(address contributor, uint amount, uint currentTotal);\n\n  // Event for when the project creator has received their funds\n  event CreatorPaid(address recipient); \n\n  modifier theState(ProjectState _state) {\n    require(state == _state);\n    _; \n  }\n\n  constructor\n  (\n    IERC20 token,\n    address payable projectCreator, \n    string memory projectTitle,\n    string memory projectDescription,\n    string memory projectImageLink, \n    uint fundRaisingDeadline,\n    uint projectGoalAmount\n  ) {\n    cUSDToken = token; \n    creator = projectCreator; \n    title = projectTitle; \n    description = projectDescription;\n    imageLink = projectImageLink;\n    goalAmount = projectGoalAmount;\n    raisingDeadline = fundRaisingDeadline;\n    currentBalance = 0; \n  }\n\n  // Fund a certain project\n  function contribute(uint256 amount) external theState(ProjectState.Fundraising) payable {\n    cUSDToken.transferFrom(msg.sender, address(this), amount);\n\n    contributions[msg.sender] = contributions[msg.sender].add(amount);\n    currentBalance = currentBalance.add(amount);\n    emit ReceivedFunding(msg.sender, amount, currentBalance);\n    checkIfFundingExpired();\n  }\n\n  // check project state\n  function checkIfFundingExpired() public {\n    if (block.timestamp > raisingDeadline) {\n      state = ProjectState.Expired;\n    }\n  }\n\n  function payOut() external returns (bool result) {\n    require(msg.sender == creator); \n\n    uint256 totalRaised = currentBalance; \n    currentBalance = 0; \n\n    if (cUSDToken.transfer(msg.sender, totalRaised)) {\n      emit CreatorPaid(creator);\n      state = ProjectState.Successful;\n      return true; \n    } else { \n      currentBalance = totalRaised; \n      state = ProjectState.Successful;\n    }\n\n    return false; \n  }\n\n  function getDetails() public view returns \n  (\n    address payable projectCreator, \n    string memory projectTitle,\n    string memory projectDescription,\n    string memory projectImageLink, \n    uint fundRaisingDeadline,\n    ProjectState currentState, \n    uint256 projectGoalAmount,\n    uint256 currentAmount\n  ) {\n    projectCreator = creator; \n    projectTitle = title;\n    projectDescription = description;\n    projectImageLink = imageLink; \n    fundRaisingDeadline = raisingDeadline;\n    currentState = state; \n    projectGoalAmount = goalAmount; \n    currentAmount = currentBalance; \n  }\n}\n",
  "sourcePath": "/Users/alex/Local/coperacha-contracts/contracts/CeloCrowdfund.sol",
  "compiler": {
    "name": "solc",
    "version": "0.8.0+commit.c7dfd78e.Emscripten.clang"
  },
  "schemaVersion": "3.3.4",
  "updatedAt": "2021-04-10T04:19:59.295Z",
  "devdoc": {
    "kind": "dev",
    "methods": {},
    "version": 1
  },
  "userdoc": {
    "kind": "user",
    "methods": {},
    "version": 1
  }
}